:100000006F00B026000000004C0100004E0100000F
:1000100000000000000000000000000000000000E0
:1000200000000000000000000000000000000000D0
:100030005E01000000000000680A000000000000EF
:10004000680A0000680A0000680A0000680A0000E8
:10005000680A0000680A0000680A0000680A0000D8
:10006000680A0000680A0000680A0000680A0000C8
:10007000680A0000680A0000680A0000680A0000B8
:10008000B2080000680A0000680A0000680A000060
:10009000680A0000680A0000680A0000000000000A
:1000A000511126C022C206C4828282441244A24058
:1000B00031018280634E050263C305042E86AA8542
:1000C0007D5515C285466378B6006356C0000606A6
:1000D0008606E36CB6FE014563E4C500918D558D3F
:1000E00085820582F5FA82808682C93F2E858282CA
:1000F0003305A04063D70500B305B040C1B7B305D1
:10010000B0408682653F3305A0408282868263C705
:100110000500634905005D372E858282B305B04036
:10012000E35B05FE3305A040513F3305B0408282BA
:100130000000A98D93F5F50F85679387C7058605A0
:10014000BE95135785008A21398D828001A0B7079B
:10015000EFBE37E700E0938707083CC701A0B7F779
:1001600000E0D4430547639CE60023A2070003A7F1
:10017000818411C703A781847D1723A4E1847300C0
:100180002030EFF2FFF1511185451305400302C005
:1001900002C202C4EF001042B714014085470D446B
:1001A0007C808A85C147138504403EC422C2EF008B
:1001B000D01699477C808A85930780041385048034
:1001C0003EC422C2EF0070151307400E930780044F
:1001D0008A853715014078803EC422C2EF00F013B3
:1001E0001307C00F930780048A8513850440788025
:1001F0003EC422C2EF007012310145BDB7F700E0E6
:10020000D8438566799BD8C388CB23A407003D4794
:1002100098C3B7E700E023A0D7102386E740828089
:10022000B71601401385E18183A786400C219846CB
:1002300093860680944605431386C18163926524A4
:1002400093F58700639F05240E228505C205C181B1
:100250000EA229661306F6C36374B60023000500D8
:100260001385A1810C21054313868181639E65223C
:1002700093F54700639B05240E228505C205C181C5
:100280000EA229661306F6C36374B60023000500A8
:10029000138561810C21054313864181639A652290
:1002A00093750708639705240E228505C205C18151
:1002B0000EA229661306F6C36374B6002300050078
:1002C000138521810C2105431386018163966522E4
:1002D00093750704639305240E228505C205C18129
:1002E0000EA229661306F6C36374B6002300050048
:1002F0001385E1800C2105431386C180639265223A
:1003000093750702639F05220E228505C205C181F0
:100310000EA229661306F6C36374B6002300050017
:100320009385A18003C30500054513868180631D65
:10033000A320118B631A07221A2205074207418363
:100340001AA229661306F6C36374E600238005002B
:100350009385218290210545138701826319A62088
:1003600013F6070163150622122305064206418291
:1003700012A329671307F7C36374C700238005001E
:100380009385618290210545138741826314A620DD
:1003900013F6070263100622122305064206418265
:1003A00012A329671307F7C36374C70023800500EE
:1003B0009385A1829021054513878182631FA61E24
:1003C00013F60704631B062012230506420641822A
:1003D00012A329671307F7C36374C70023800500BE
:1003E0001386E182082285451387C182631AB51EF0
:1003F00093F70708639607201E238507C207C1836A
:100400001EA329671307F7C36374F70023000600D0
:1004100037060020130666041822B707002085451A
:10042000938747046311B71E13F74600631D071E29
:100430009A230507420741839AA3A9679387F7C3C5
:1004400063F4E700230006003706002013062604A5
:100450001822B70700208545938707046318B71C47
:10046000898A6394061E9A230507420741839AA34B
:10047000A9679387F7C363FCE71C2300060082800B
:100480008DE193F5870091CD0E228505C205C181CE
:100490000EA229661306F6C3E374B6DC23006500DA
:1004A000C1B3231006006DBB8DE193F5470091CDDC
:1004B0000E228505C205C1810EA229661306F6C368
:1004C000E378B6DC23006500E1B323100600C9B36E
:1004D0008DE19375070891CD0E228505C205C18176
:1004E0000EA229661306F6C3E37CB6DC2300650082
:1004F000C1BB23100600E9B38DE19375070491CDCC
:100500000E228505C205C1810EA229661306F6C317
:10051000E370B6DE23006500E1BB23100600C9BB13
:100520008DE19375070291CD0E228505C205C1812B
:100530000EA229661306F6C3E374B6DE2300650037
:10054000C5B323100600E9BB63100302118B09CF6A
:100550001A220507420741831AA229661306F6C329
:10056000E378E6DE88A1EDB323100600D5B305E2FB
:1005700013F6070109CE122305064206418212A393
:1005800029671307F7C3E37DC7DE88A1D5BB231016
:100590000700FDB305E213F6070209CE1223050694
:1005A0004206418212A329671307F7C3E372C7E02B
:1005B00088A1FDBB23100700E5BB05E213F6070485
:1005C00009CE122305064206418212A329671307AA
:1005D000F7C3E377C7E088A121B52310070009B569
:1005E00005E193F7070889CF1E238507C207C1835A
:1005F0001EA329671307F7C3E37CF7E00CA209BD2C
:100600002310070031B505E313F7460009CF9A23FD
:100610000507420741839AA3A9679387F7C3E3F5C8
:10062000E7E20CA215B52390070039BD19EF898ABE
:1006300089CE9A230507420741839AA3A967938726
:10064000F7C363F6E7000CA2828023900700828044
:10065000EFF21FA52A8415657111130555552EC09B
:10066000ED2B1375F40FF52B82452E85FD2B1125EF
:10067000012D11011DBCEFF2BFA22111412605453C
:10068000212D9387818423A00700B707002003A5AD
:1006900047019305803E138481840D3481457D1587
:1006A000B13E1565130505B0EF009009D93CB717A9
:1006B0000140054723A8E74093058002A947371664
:1006C00001400CC018407DFF0327C640FD171347AB
:1006D00017002326E640F5F79387C1849305803EF3
:1006E0001545238007009384C1849D3713840183BB
:1006F00049233D369C200547E31CF7FE1820238044
:10070000040093074004E315F7FE18309307100424
:10071000E310F7FE382093075004E31BF7FCB717EC
:10072000014003A7C74025461347170023A6E7400B
:1007300083C7E18103C7A18193C7F7FF1347F7FF81
:10074000858B058B0A078E07D98F03C72181134735
:10075000F7FF058BD98F03C761811347F7FF058B1F
:100760000607D98F93F6F70F138776036344F600D5
:1007700013870603588283C7E18003C7A1802546FB
:1007800093C7F7FF1347F7FF858B058B0A078E0783
:10079000D98F03C761821347F7FF058BD98F03C732
:1007A00021821347F7FF058B0607D98F93F6F70FC2
:1007B000138776036344F60013870603D88283C742
:1007C000A18203C7E182254693C7F7FF1347F7FFCE
:1007D000858B058B0A078E07D98F370700200347C3
:1007E00027041347F7FF058BD98F370700200347EE
:1007F00067041347F7FF058B0607D98F93F6F70FAA
:10080000138776036344F60013870603B7070020B7
:1008100058837D572390E7000147938707008D4653
:100820008A236319D7069356C50013F7F60F25469A
:10083000930777036364D60093070703DC8393571A
:100840008540BD8B93F6F70F2546138776036344E7
:10085000F6001387060393574540BD8B588493F6E3
:10086000F70F2546138776036344F60013870603C4
:100870003D89D884A5461377F50F9307770363E482
:10088000A6009307070348005C85A3050100EF005D
:100890008078B9BD5C00B386E7008C223AC0EFF0E7
:1008A0005F890247B7070020938707008AA30507DF
:1008B000BDB7711122C03744014093055052130552
:1008C0000480892501CD1305048025251375F50FB6
:1008D0009307F0026318F50023820184024411019A
:1008E000730020309307C0056316F5000547238683
:1008F000E184EDB7138741841C238946E3E0F6FECB
:100900001C2393F6F70F9387160093F7F70F1CA39A
:1009100093870183B69788A3D1B7EFF26FF83714A6
:1009200002401C403707FFF8414593E717001CC001
:100930005C40F98F5CC01C403707F7FE7D17F98FCC
:100940001CC01C403707FCFF7D17F98F1CC05C40A2
:1009500041777D17F98F5CC0B7079F001CC44D26F7
:100960001C4C93E707021CCCB717014003A70740B4
:10097000938607401377F7F023A0E74003A70740CB
:100980001367070823A0E74089479CCAB7F7FF1FF2
:1009900003C5477D9307F00F6304F5007D898D261D
:1009A000B72702409843C176FD16719B98C39843C0
:1009B0001367170098C3B7170240D843D8C3D8436A
:1009C000758FD8C3D843B7060001D8C39843558F55
:1009D00098C3984393166700E3DD06FED843B71625
:1009E0000240719BD8C3D84313672700D8C321475F
:1009F000DC42B18BE39EE7FE6FF02FEBEFF24FEAA4
:100A0000371702405C43370400209146B18B130432
:100A100044016385D700A1466382D704B7376E01CE
:100A2000938707601CC0B7160240DC4208409183E0
:100A300013F7F700B707002093874700BA978C2376
:100A4000DC4293F5F50F93F707083357B50081E7BC
:100A5000EFF0CFE62A8718C06FF02FE55C43B77739
:100A6000DC02938707C07DBF01A09701002093811E
:100A700061DD138101FC1305000A97F5FF1F9385C3
:100A8000655817F6FF1F1306E65763FAC500832261
:100A9000050023A0550011059105E3EAC5FE1705E1
:100AA00000001305E57B97F5FF1F9385A55517F605
:100AB000FF1F1306265963FAC5008322050023A0F1
:100AC000550011059105E3EAC5FE17F5FF1F130553
:100AD0006557938541856377B5002320050011058F
:100AE000E36DB5FEB7220000938202887390023056
:100AF0008D427390428097F2FFFF9382A25093E25F
:100B0000320073905230EFF05FE197020000938261
:100B1000C2B67390123473002030944593F70601E7
:100B200093F2F60081C7DC41B3E2F20083D3050003
:100B300093F7F30FA5C303230500611122C226C05A
:100B40008147130480029304800405473316F7009D
:100B500033F7C3006312E602939527003D4733172E
:100B6000B7001347F7FF33736700B395B20033E361
:100B70006500639D860050C985072147E397E7FC20
:100B8000124423206500824421018280E39696FE70
:100B900010C9DDB782803703014003274300931754
:100BA000350063D00702B707C0FFF517F98F370785
:100BB0000007D98FD9CD370700F07D17798DC98F00
:100BC00049A8635D0500B707E0FFED17F98F370708
:100BD0000007D98FBDCD06050581D5B7B707300011
:100BE000931605013376F500C1826313F6023706CA
:100BF00000F97D16B377C70003274300798E2322BF
:100C0000C300A1C95581131745003395E60045BFC0
:100C10009317B50063D407029357050113F6F70045
:100C20008D47B397C70093C7F7FFF98F37070007C2
:100C3000D98F85C1135755011207C1BF55811205C0
:100C40003395A6009347F5FFF98F37070007D98F33
:100C5000BDF5370701405CC38280B737004088C3C9
:100C60008280B7370040C8C38280B737004088C74A
:100C70008280AD67373700409387A7AA1CC3828064
:100C8000B567373700409387C7CC1CC3371702407E
:100C90005C53898BF5DF828023A8A184828083A6A0
:100CA0000185854718216390F6021C31639CD702A9
:100CB0003C219A0793E707F8B7E600E093F7F70FB0
:100CC000BA962380F6408546935757003397E6003F
:100CD000544189CE938707048A07B7E600E0B697A8
:100CE00098C38280EDF33C219A07F9B793870706F2
:100CF000B7E600E08A07B69798C30F10000082801D
:100D0000371702401C430E0593F777F05D8D08C33B
:100D10008280EFF2EFB8371702405C4391462A8495
:100D2000B18B6385D700A1466380D708B7376E01C2
:100D3000938707601CC0B7160240DC42918313F70B
:100D4000F700B70700209387C702BA978C23DC42CD
:100D5000184093F5F50F93F707083355B70081E76F
:100D60003A85EFF0AFB548C008C448C4B717024091
:100D7000DC438D46AD83FD8B13D737008A07F18B9B
:100D8000D98F13F6370113F7370063F4C6001387C2
:100D900047FFB707002093878701BA978C23EFF0AE
:100DA000EFB108C86FF06FB05C43B777DC02938790
:100DB00007C049B799C5371702401C4F5D8D08CF52
:100DC0008280B7170240984F1345F5FF798D88CF81
:100DD0008280EFF2EFAC1629F577FD17F58FF6213B
:100DE000DA252111D58F1EA95625FD779387379FC8
:100DF000F58FD6212A842EC0D58F9625D58FB6257E
:100E0000D58F5EA55E29C207C18393F7F7CF5D8FAB
:100E10005AA94800FD3DB7470140938707808245A6
:100E20006312F406C2475A24139517003E954207F1
:100E30000E0541873E958C41635807048605EFF007
:100E4000EFA7930540062AC0EFF04FA782479314FF
:100E50004500930540063E85EFF00FA95E24C207CA
:100E6000C18763D507020E059305400613052503C8
:100E7000EFF0CFA41D89C98CC204C18006A4610112
:100E80006FF0AFA2B24745B78A0555BF120593056B
:100E9000400613052503EFF06FA23D89E9BF91C518
:100EA0005E250967D98F5EA582805A25F977FD17DF
:100EB000F98FD5BF13F7F50F85471583B395B700A5
:100EC0006319F7009307C500984301CED98D8CC3F1
:100ED0008280894693074501E318D7FE93070501F1
:100EE000E5B793C5F5FFF98DDDB793F5F51F4EA175
:100EF00082804A211375F51F82800A216D8D33355A
:100F0000A000828013F7F50F85461583B397B600CE
:100F10006311D7025A25F98F1A21014542074183EF
:100F200081CB0545A181B315B5006D8F3335E00048
:100F3000828089466314D7001A29F1BF5A29E1BF7C
:100F4000EFF20F962A8411651301C1FD8545450511
:100F500002C002C285353705208085451105253937
:100F60008D4785443EC62C00E14737150140648417
:100F70003EC8653689477C842C009147371501406F
:100F80003EC8613E22CA37440140B7070C004C08F6
:100F9000130504803ECE02CC231001021D3D054600
:100FA00093055052130504803137930700127C805B
:100FB0000A8585473EC24481DD318545130504809D
:100FC000F93D130141026FF04F8EEFF26F8D7111F9
:100FD000AE840144635DC402B747014013870780B4
:100FE0003A859305000432C0093FB7470140138793
:100FF0000780024675D53387840083050700138573
:1010000007800504C205C181CD350246E1B73285AE
:1010100011016FF08F89411122C426C206C61C211E
:10102000AA840144DC8183073100050491EFA947BC
:101030009305310005460145DC81413F2285B240E0
:1010400022449244410182800546930531000145C6
:10105000AD3FB38784009C23DC81F1B70000C1C0A1
:1010600081C1400101C3C003800241C201C6C00664
:10107000800741C70005C1C581C4400401CCC00C34
:10108000800D41CD000FC1CF81CE400E000AC1CAF4
:1010900081CB400B01C9C009800841C801D8C018E4
:1010A000801941D9001BC1DB81DA401A001EC1DE64
:1010B00081DF401F01DDC01D801C41DC0014C1D454
:1010C00081D5401501D7C017801641D601D2C01274
:1010D000801341D30011C1D181D0401001F0C03044
:1010E000803141F10033C1F381F240320036C1F664
:1010F00081F7403701F5C035803441F4003CC1FC34
:1011000081FD403D01FFC03F803E41FE01FAC03AF3
:10111000803B41FB0039C1F981F840380028C1E823
:1011200081E9402901EBC02B802A41EA01EEC02E63
:10113000802F41EF002DC1ED81EC402C01E4C02453
:10114000802541E50027C1E781E640260022C1E273
:1011500081E3402301E1C021802041E001A0C06083
:10116000806141A10063C1A381A240620066C1A663
:1011700081A7406701A5C065806441A4006CC1AC33
:1011800081AD406D01AFC06F806E41AE01AAC06AF3
:10119000806B41AB0069C1A981A840680078C1B8E3
:1011A00081B9407901BBC07B807A41BA01BEC07E63
:1011B000807F41BF007DC1BD81BC407C01B4C07453
:1011C000807541B50077C1B781B640760072C1B273
:1011D00081B3407301B1C071807041B00050C190C3
:1011E000819140510193C053805241920196C05663
:1011F000805741970055C19581944054019CC05C33
:10120000805D419D005FC19F819E405E005AC19AF2
:10121000819B405B0199C059805841980188C04822
:1012200080494189004BC18B818A404A004EC18E62
:10123000818F404F018DC04D804C418C0044C18452
:10124000818540450187C047804641860182C04272
:0C125000804341830041C1818180404007
:10125C00FFFF000001020304050607080102030456
:10126C0005060708006CDC020204060804080C10D2
:10127C000810182010203040204060800102030428
:10128C000506070801020304050607080000000014
:00000001FF
