:100000006F00F00B000000006401000066010000BA
:1000100000000000000000000000000000000000E0
:1000200000000000000000000000000000000000D0
:100030007601000000000000BC0800000000000085
:10004000BC080000BC080000BC080000BC080000A0
:10005000BC080000BC080000BC080000BC08000090
:10006000BC080000BC080000BC080000BC08000080
:10007000BC080000BC080000BC080000BC08000070
:1000800002070000BC080000BC080000BC0800001B
:10009000BC080000BC080000BC0800000000000014
:1000A000511126C022C206C4828282441244A24058
:1000B000310182802A86014593F6150091C232955E
:1000C00085810606F5F9828000000000634E050276
:1000D00063C305042E86AA857D5515C285466378BF
:1000E000B6006356C00006068606E36CB6FE014500
:1000F00063E4C500918D558D85820582F5FA828075
:100100008682C93F2E8582823305A04063D70500D1
:10011000B305B040C1B7B305B0408682653F330533
:10012000A0408282868263C70500634905005D376F
:100130002E858282B305B040E35B05FE3305A04007
:10014000513F3305B04082820000A98D93F5F50F31
:1001500085679387C7F08605BE95135785008A216A
:10016000398D828001A0B707EFBE37E700E09387A3
:1001700007083CC701A0B7F700E0D4430547639CDC
:10018000E60023A2070003A7818111C703A781818D
:100190007D1723ACE1807300203089477111630E15
:1001A000F50263ECA70085476303F50202C025470B
:1001B0008247637DF702110182808D476303F50258
:1001C0009147E315F5FEB7170140214731A8B7174E
:1001D0000140214723AAE740D1BFB717014011478B
:1001E000D5BFB71701401147D8CBC9B7824785079C
:1001F0003EC07DBF711102C025478247637CF70076
:100200008947630DF50263EBA70085476302F5029A
:1002100011018280824785073EC0C5B78D476303C1
:10022000F5029147E316F5FEB7170140214731A8C3
:10023000B7170140214723A8E740D9BFB7170140AE
:100240001147D5BFB7170140114798CBD1B7EFF28F
:100250003FE5511185451305000202C002C202C4E8
:10026000EF00901A85477C8037150140C1473EC496
:100270008A858D47130505403EC2EF00406F31016E
:100280002DB5B7F700E0D8438566799BD8C388CBF6
:1002900023A407003D4798C3B7E700E023A0D71089
:1002A0002386E7408280EFF2BFDF05651301C1FDC1
:1002B00085451305050302C202C402C602C802CA6C
:1002C00002CC02CE23100102EF00101437150140BA
:1002D0000D44B147C1444C00130505407C823EC02B
:1002E00026C622C4EF00A06882474C0037150140A3
:1002F0007C8226C622C4EF008067E1449307000297
:100300004C00371501407C8226C622C4EF002066CF
:10031000930700087C824C009147371501403EC688
:10032000EF00E064930700044C00371501407C8225
:1003300026C622C4EF00A063B70704013EC8B70772
:10034000000285070C08373501403ECC26CE02CA94
:10035000EF00700D854537350140EF00F00F1301B8
:100360004102A1B3373701401E27898BF5DF4205D3
:1003700041814AA7373701401E27858BF5DF4A2781
:100380001375F50F8280EFF2BFD12A84393513053A
:100390003008C93F13053009F1371145E13713051E
:1003A0005008C93713056002753F130500095D3F0A
:1003B000228589352285D533130500086537130555
:1003C000300D4D3722853D35CDB1EFF27FCD938491
:1003D000018805442285453F268793070002FD17C3
:1003E000231007FC93F7F70F0907F5FB05041374B7
:1003F000F40F954793840404E31EF4FC7DB1EFF2FF
:100400003FCAAA84593B0145B13F0145A13F238220
:10041000A19C0145813F220513140501014599372F
:100420004180418D420541819387619C05818AA36A
:100430002685C9339387619C8A23F9779387C748B8
:10044000AA97C2070567C18325076375F70026854C
:100450001D3F014599B993870182AA979823931666
:10046000250013868182160536963A959386018477
:10047000060503230600369516212E930507330340
:10048000D3407D8B232066000EA198A3828015C1E6
:10049000EFF21FC185659385B58B29399357050107
:1004A0001307500E01456375F700ED0713F5F70FBD
:1004B000EDBE01458280EFF2BFBE1304F5FF813728
:1004C0001374F40F9387019C01C9A297AA85238016
:1004D000070022854937D1BEA297982305071377D5
:1004E000F70F98A3A547E3F8E7FE8145DDB7EFF2E4
:1004F0003FBB2A8415657111130555552EC0452B38
:100500001375F40F4D2B82452E85552B6D2BD9235A
:10051000110161BEEFF2DFB81301C1FD152E0545D3
:10052000F1239387818123A00700B707002003A54B
:1005300007019305803E13848181693E81457D15C5
:1005400089331565130505B0EF0090090933A13B08
:10055000B7170140054723A8E74093058002A94744
:10056000371601400CC018407DFF0327C640FD1719
:1005700093F7F70F134717002326E640E5F7138795
:10058000C1812300070091359305803E15458537CD
:100590009387C1813EC0B7D7030093870709814481
:1005A00001443EC2924763EE87120504B167938708
:1005B000073563EB97128504824705479C23E313B5
:1005C000F7FE82471307400523800700B707002086
:1005D000938787039423E397E6FC983393061004EC
:1005E000E312D7FCBC23E39FE7FAB717014003A748
:1005F000C740938681821347170023A6E740180857
:1006000088423AC636C4158142054181493593571F
:10061000450093F7F70F2546A2462C083247636F33
:10062000F60C93870703E207E1871CA33D89930734
:1006300075036364A600930705031CB309079106BD
:10064000E390E5FC7D572394E19C01479387819CCF
:100650001408BA968C228A233AC4C53C2247938751
:10066000819C8AA30507A146E314D7FE9356C500D3
:1006700013F7F60F2546930777036364D6009307B5
:100680000703230CF10093578540BD8B93F6F70FBA
:100690002546138776036344F600138706039357B2
:1006A0004540BD8BA30CE10093F6F70F2546138759
:1006B00076036344F600138706033D89230DE100AA
:1006C000A5461377F50F9307770363E4A600930716
:1006D00007030808A30DF100230E0100EF00807E40
:1006E000D1B5D5260144D9B50545F1330945E133E6
:1006F0000D45D1331145C13381447DBD93877703C7
:100700001DB7711122C037440140930550521305A3
:100710000480492D01CD13050480A52D1375F50F17
:100720009307F0026318F500238A01800244110147
:10073000730020309307C0056316F5000547238E2C
:10074000E180EDB7138741811C238946E3E0F6FE83
:100750001C2393F6F70F9387160093F7F70F1CA34C
:10076000B707002093878703B69788A3C1B7EFF236
:100770003F93371402401C403707FFF8414593E789
:1007800017001CC05C40F98F5CC01C403707F7FEA7
:100790007D17F98F1CC01C403707FCFF7D17F98FB0
:1007A0001CC05C4041777D17F98F5CC0B7079F0084
:1007B0001CC44D261C4C93E707021CCCB717014004
:1007C00003A70740938607401377F7F023A0E7407D
:1007D00003A707401367070823A0E74089479CCA7F
:1007E000B7F7FF1F03C5477D9307F00F6304F500BC
:1007F0007D898D26B72702409843C176FD16719BEF
:1008000098C398431367170098C3B7170240D8439B
:10081000D8C3D843758FD8C3D843B7060001D8C30F
:100820009843558F98C3984393166700E3DD06FEFF
:10083000D843B7160240719BD8C3D843136727002B
:10084000D8C32147DC42B18BE39EE7FE6FF0FF8502
:10085000EFF21F85371702405C43370400209146B2
:10086000B18B130404016385D700A1466382D704CA
:10087000B7376E01938707601CC0B7160240DC4291
:100880000840918313F7F700B7070020938707000C
:10089000BA978C23DC4293F5F50F93F7070833578B
:1008A000B50081E7EFF01F832A8718C06FF0EFFFD4
:1008B0005C43B777DC02938707C07DBF01A0970137
:1008C00000209381A1F7138181FC1305000A97F59D
:1008D000FF1F9385257317F6FF1F1306A67263FA91
:1008E000C5008322050023A0550011059105E3EA08
:1008F000C5FE171500001305A58197F5FF1F938509
:10090000657017F6FF1F1306667363FAC50083222E
:10091000050023A0550011059105E3EAC5FE17F572
:10092000FF1F1305A5719385019D6377B5002320F3
:1009300005001105E36DB5FEB72200009382028821
:10094000739002308D427390428097F2FFFF938242
:10095000626B93E2320073905230EFF05FE19702E6
:100960000000938262BB7390123473002030944570
:1009700093F7060193F2F60081C7DC41B3E2F2007F
:1009800083D3050093F7F30FA5C30323050061117B
:1009900022C226C0814713048002930480040547C5
:1009A0003316F70033F7C3006312E602939527006E
:1009B0003D473317B7001347F7FF33736700B3950D
:1009C000B20033E36500639D860050C98507214767
:1009D000E397E7FC124423206500824421018280D2
:1009E000E39696FE10C9DDB78280370301400327E6
:1009F00043009317350063D00702B707C0FFF51710
:100A0000F98F37070007D98FD9CD370700F07D1749
:100A1000798DC98F49A8635D0500B707E0FFED1721
:100A2000F98F37070007D98FBDCD06050581D5B7EA
:100A3000B7073000931605013376F500C1826313C2
:100A4000F602370600F97D16B377C7000327430087
:100A5000798E2322C300A1C9558113174500339510
:100A6000E60045BF9317B50063D40702935705010D
:100A700013F6F7008D47B397C70093C7F7FFF98FB9
:100A800037070007D98F85C1135755011207C1BF1A
:100A9000558112053395A6009347F5FFF98F370767
:100AA0000007D98FBDF5370701405CC38280B73797
:100AB000004088C38280B7370040C8C38280B73700
:100AC000004088C78280AD67373700409387A7AA68
:100AD0001CC38280B567373700409387C7CC1CC3DF
:100AE000371702405C53898BF5DF828023A6A19CD7
:100AF000828083A6C19C854718216390F6021C3131
:100B0000639CD7023C219A0793E707F8B7E600E019
:100B100093F7F70FBA962380F64085469357570010
:100B20003397E600544189CE938707048A07B7E6D6
:100B300000E0B69798C38280EDF33C219A07F9B79D
:100B400093870706B7E600E08A07B69798C30F10A9
:100B500000008280371702401C430E0593F777F0A0
:100B60005D8D08C38280EFF2AFD3371702405C433C
:100B700091462A84B18B6385D700A1466380D7084C
:100B8000B7376E01938707601CC0B7160240DC427E
:100B9000918313F7F700B707002093878702BA976E
:100BA0008C23DC42184093F5F50F93F70708335573
:100BB000B70081E73A85EFF0EFD148C008C448C4D8
:100BC000B7170240DC438D46AD83FD8B13D737004A
:100BD0008A07F18BD98F13F6370113F7370063F4C7
:100BE000C600138747FFB707002093874701BA97CE
:100BF0008C23EFF02FCE08C86FF02FCB5C43B77774
:100C0000DC02938707C049B799C5371702401C4FCC
:100C10005D8D08CF8280B7170240984F1345F5FFCE
:100C2000798D88CF82801A218D6793870704B6213A
:100C30007D8F9E21D58FD621D58FF621D58F9625F4
:100C4000D58FB625D58FD625D58FF625D58FD98FBB
:100C50001EA19E291EA982801E2189C593E7070433
:100C60001EA18280C207C18393F7F7FBC207C1832D
:100C7000C5BFEFF2EFC21629F577FD17F58FF62104
:100C8000DA252111D58F1EA95625FD779387379F29
:100C9000F58FD6212A842EC0D58F9625D58FB625DF
:100CA000D58F5EA55E29C207C18393F7F7CF5D8F0D
:100CB0005AA948004D3DB7470140938707808245B8
:100CC0006312F406C2475A24139517003E95420753
:100CD0000E0541873E958C41635807048605EFF069
:100CE0006FBF930540062AC0EFF0CFBE8247931432
:100CF0004500930540063E85EFF08FC05E24C20795
:100D0000C18763D507020E05930540061305250329
:100D1000EFF04FBC1D89C98CC204C18006A46101DB
:100D20006FF0AFB8B24745B78A0555BF12059305B6
:100D3000400613052503EFF0EFB93D89E9BF91C5E2
:100D40005E250967D98F5EA582805A25F977FD1740
:100D5000F98FD5BF13F7F50F85471583B395B70006
:100D60006319F7009307C500984301CED98D8CC352
:100D70008280894693074501E318D7FE9307050152
:100D8000E5B793C5F5FFF98DDDB793F5F51F4EA1D6
:100D900082804A211375F51F82800A216D8D3335BB
:100DA000A000828013F7F50F85461583B397B60030
:100DB0006311D7025A25F98F1A2101454207418351
:100DC00081CB0545A181B315B5006D8F3335E000AA
:100DD000828089466314D7001A29F1BF5A29E1BFDE
:100DE000EFF20FAC2A8411651301C1FD854545055D
:100DF00002C402C602C802CA02CC02CE02D002C09D
:100E000002C219353705208085451105F93E8D4709
:100E100085443EC62C00E1473715014064843EC836
:100E2000B93689477C842C009147371501403EC86C
:100E30003D3E22CA37440140B7070C004C08130559
:100E400004803ECE02CC23100102253505469305D1
:100E5000505213050480FD3D930700127C800A85E3
:100E600085473EC244817131854513050480C13DEB
:100E7000130141026FF06FA3EFF28FA27111AE84E4
:100E80000144635DC402B7470140138707803A8578
:100E90009305000432C01137B7470140138707801C
:100EA000024675D5338784008305070013850780C4
:100EB0000504C205C181D13D0246E1B73285110169
:100EC0006FF0AF9E411122C426C206C61C21AA841F
:100ED0000144DC8183073100050491EFA9479305A4
:100EE000310005460145DC81413F2285B240224464
:100EF0009244410182800546930531000145AD3F92
:100F0000B38784009C23DC81F1B700000000C1C0DE
:100F100081C1400101C3C003800241C201C6C006B5
:100F2000800741C70005C1C581C4400401CCC00C85
:100F3000800D41CD000FC1CF81CE400E000AC1CA45
:100F400081CB400B01C9C009800841C801D8C01835
:100F5000801941D9001BC1DB81DA401A001EC1DEB5
:100F600081DF401F01DDC01D801C41DC0014C1D4A5
:100F700081D5401501D7C017801641D601D2C012C5
:100F8000801341D30011C1D181D0401001F0C03095
:100F9000803141F10033C1F381F240320036C1F6B5
:100FA00081F7403701F5C035803441F4003CC1FC85
:100FB00081FD403D01FFC03F803E41FE01FAC03A45
:100FC000803B41FB0039C1F981F840380028C1E875
:100FD00081E9402901EBC02B802A41EA01EEC02EB5
:100FE000802F41EF002DC1ED81EC402C01E4C024A5
:100FF000802541E50027C1E781E640260022C1E2C5
:1010000081E3402301E1C021802041E001A0C060D4
:10101000806141A10063C1A381A240620066C1A6B4
:1010200081A7406701A5C065806441A4006CC1AC84
:1010300081AD406D01AFC06F806E41AE01AAC06A44
:10104000806B41AB0069C1A981A840680078C1B834
:1010500081B9407901BBC07B807A41BA01BEC07EB4
:10106000807F41BF007DC1BD81BC407C01B4C074A4
:10107000807541B50077C1B781B640760072C1B2C4
:1010800081B3407301B1C071807041B00050C19014
:10109000819140510193C053805241920196C056B4
:1010A000805741970055C19581944054019CC05C84
:1010B000805D419D005FC19F819E405E005AC19A44
:1010C000819B405B0199C059805841980188C04874
:1010D00080494189004BC18B818A404A004EC18EB4
:1010E000818F404F018DC04D804C418C0044C184A4
:1010F000818540450187C047804641860182C042C4
:0C110000804341830041C1818180404058
:10110C00010203040506070801020304050607088B
:10111C00006CDC020204060804080C1008101820ED
:10112C0010203040204060800102030405060708AF
:08113C00010203040506070887
:00000001FF
