:100000006F00F02E000000004C0100004E010000C7
:1000100000000000000000000000000000000000E0
:1000200000000000000000000000000000000000D0
:100030005E01000000000000EC0A0000000000006B
:10004000EC0A0000EC0A0000EC0A0000EC0A0000D8
:10005000EC0A0000EC0A0000EC0A0000EC0A0000C8
:10006000EC0A0000EC0A0000EC0A0000EC0A0000B8
:10007000EC0A0000EC0A0000EC0A0000EC0A0000A8
:1000800036090000EC0A0000EC0A0000EC0A00004F
:10009000EC0A0000EC0A0000EC0A0000000000007E
:1000A000511126C022C206C4828282441244A24058
:1000B00031018280634E050263C305042E86AA8542
:1000C0007D5515C285466378B6006356C0000606A6
:1000D0008606E36CB6FE014563E4C500918D558D3F
:1000E00085820582F5FA82808682C93F2E858282CA
:1000F0003305A04063D70500B305B040C1B7B305D1
:10010000B0408682653F3305A0408282868263C705
:100110000500634905005D372E858282B305B04036
:10012000E35B05FE3305A040513F3305B0408282BA
:100130000000A98D93F5F50F85679387070E860557
:10014000BE95135785008A21398D828001A0B7079B
:10015000EFBE37E700E0938707083CC701A0B7F779
:1001600000E023A2070003A7818411C703A78184AD
:100170007D1723A4E18483C7E18493F7F70FBDE3E0
:10018000B717014003A78780B7070020138617041D
:100190001022938717041376F60F11E613762700C3
:1001A00019E2054690A390231376F60F0DC2098B32
:1001B00019CF3707002013070704102393051003F6
:1001C00063E4C5021423850693F6F60F14A39C235B
:1001D00093F7F70F81CB83D7C1848507C207C1830B
:1001E0002396F1847300203023800700230007004A
:1001F00003D7C1841307E7FC420741832396E184B8
:1002000005472387E184E1B7EFF29FE95111854566
:100210001305400302C002C202C4EF00F041B7144C
:10022000014085470D447C808A85C1471385044081
:100230003EC422C2EF00B01699477C808A8593079E
:100240008004138504803EC422C2EF0050151307BA
:10025000400E930780048A853715014078803EC49C
:1002600022C2EF00D0131307C00F930780048A85C2
:100270001385044078803EC422C2EF005012310141
:100280002DB5B7F700E0D8438566799BD8C388CBF6
:1002900023A407003D4798C3B7E700E023A0D71089
:1002A0002386E74082801385C181B71601400C2167
:1002B00083A78640984603A6868005439386A1813E
:1002C0006392651E93F58700639D051E8E2285054A
:1002D000C205C1818EA2F54663F4B6002300050075
:1002E000138581810C21054393866181639E651C82
:1002F00093F547006399051E8E228505C205C181CD
:100300008EA2F54663F4B6002300050013854181F3
:100310000C21054393862181639A651C9375070818
:100320006395051E8E228505C205C1818EA2F54604
:1003300063F4B60023000500138501810C210543F9
:100340009386E1806396651C937507046391051E8F
:100350008E228505C205C1818EA2F54663F4B600E2
:10036000230005001385C1800C2105439386A180DD
:100370006392651C93750702639D051C8E2285059B
:10038000C205C1818EA2F54663F4B60023000500C4
:100390009385818003C30500B70600200545938639
:1003A0006604631BA31A118B6316071C9A220507A8
:1003B000420741839AA2F54663F4E60023800500D4
:1003C00093850182942105451387E1816397A61ADD
:1003D00093F607016391061C16238506C206C182A7
:1003E00016A375476374D700238005009385418267
:1003F00094210545138721826392A61A93F607027A
:10040000639C061A16238506C206C18216A3754789
:100410006374D7002380050093858182942105456C
:1004200013876182639DA61893F607046397061AE3
:1004300016238506C206C18216A375476374D700CA
:10044000238005009386C182882285451387A18277
:100450006318B51893F707086392071A1E238507D8
:10046000C207C1831EA375476374F700238006008B
:10047000B7060020938646049822B70700208545DA
:1004800093872704631FB716118A631906189A23E6
:100490000507420741839AA3F54763F3E7182380D2
:1004A0000600828099ED93F5870081CD8E22850527
:1004B000C205C1818EA2F546E3F4B6E223006500D1
:1004C00005B52390060029BD99ED93F5470081CD30
:1004D0008E228505C205C1818EA2F546E3F8B6E2FB
:1004E0002300650025B5239006000DB599ED9375A1
:1004F000070881CD8E228505C205C1818EA2F546F1
:10050000E3FCB6E22300650005BD239006002DB58F
:1005100099ED9375070481CD8E228505C205C181B1
:100520008EA2F546E3F0B6E42300650025BD2390D6
:1005300006000DBD99ED9375070281CD8E228505CC
:10054000C205C1818EA2F546E3F4B6E4230065003E
:1005500081B5239006002DBD631E0300118B19CBBE
:100560009A220507420741839AA2F546E3FAE6E498
:1005700088A1B9B523900600A1B591EE93F60701C5
:1005800099CA16238506C206C18216A37547E37F62
:10059000D7E488A1A1BD2310070089BD91EE93F691
:1005A000070299CA16238506C206C18216A375479B
:1005B000E374D7E688A18DB523100700B1BD91EE95
:1005C00093F6070499CA16238506C206C18216A3AC
:1005D0007547E379D7E688A1B5B5231007009DB527
:1005E00011ED93F7070899CB1E238507C207C18336
:1005F0001EA37547E37EF7E68CA29DBD231007007E
:1006000085BD09EF118A19CA9A230507420741835C
:100610009AA3F54763F6E7008CA282802390070037
:100620008280EFF2FFA72A841565711113055555D5
:100630002EC075251375F40F7D2582452E85452D19
:100640005D2DC925110195B4EFF29FA501110D296A
:100650000545E9259387818423A00700B70700207B
:1006600003A547019305803E13848184813C814525
:100670007D1501391565130505B0EF00B014693615
:10068000B7170140054723A8E74093058002A94713
:10069000371601400CC018407DFF0327C640FD17E8
:1006A000134717002326E640F5F71387F1849305D7
:1006B000803E154523000700AD379387F1843EC087
:1006C000B7170300938707D4814401443EC2924781
:1006D00063EF8720050489679387077163EC972090
:1006E0008504824705479C23E313F7FE82471307DF
:1006F000300423800700938701839423E399E6FC69
:10070000943313071004E394E6FCB82393075003D3
:10071000E31FF7FAB717014003A7C7402546134761
:10072000170023A6E74083C7C18103C7818193C710
:10073000F7FF1347F7FF858B058B0A078E07D98FC5
:1007400003C701811347F7FF058BD98F03C7418189
:100750001347F7FF058B0607D98F93F6F70F13871B
:1007600076036344F60013870603588683C7C18067
:1007700003C78180254693C7F7FF1347F7FF858B93
:10078000058B0A078E07D98F03C741821347F7FFEE
:10079000058BD98F03C701821347F7FF058B060727
:1007A000D98F93F6F70F138776036344F600138708
:1007B0000603D88683C7818203C7C182254693C7B3
:1007C000F7FF1347F7FF858B058B0A078E07D98F35
:1007D00037070020034747041347F7FF058B060739
:1007E000D98F93F6F70F138776036344F6001387C8
:1007F000060383D701855887A54513D6C70093768E
:10080000F60F1387760363E4C50013870603D887C2
:1008100013D787403D8B1376F70FA54593067603D4
:1008200063C4E5009306060313D747403D8B2308B6
:10083000D1001376F70FA5459306760363C4E50050
:1008400093060603BD8BA308D100254693F6F70F48
:10085000138776036364F60013870603B707002047
:100860002309E1007D572390E700014793870700A4
:100870009D468A236312D70A9356C50013F7F60FD5
:100880002546930777036364D60093070703A309FC
:10089000F10093578540BD8B93F6F70F25461387DC
:1008A00076036344F6001387060393574540BD8BD8
:1008B000230AE10093F6F70F254613877603634476
:1008C000F600138706033D89A30AE100A5461377C6
:1008D000F50F9307770363E4A60093070703680007
:1008E000230BF100A30B0100EF00207BCDB32121EE
:1008F0000144D5B34D3A9387E184982385468144DA
:10090000E391E6DE238007009387C184962323903A
:1009100007002398D184F1B37C00B386E7008C22D2
:100920003AC4EFF01F812247B707002093870700E2
:100930008AA3050735BF711122C0374401409305D2
:10094000505213050480892501CD13050480252507
:100950001375F50F9307F0026318F50023820184E5
:1009600002441101730020309307C0056316F5009F
:100970000547A387E184EDB7138741841C2389468B
:10098000E3E0F6FE1C2393F6F70F9387160093F728
:10099000F70F1CA393870183B69788A3D1B7EFF213
:1009A0002FF0371402401C403707FFF8414593E70A
:1009B00017001CC05C40F98F5CC01C403707F7FE75
:1009C0007D17F98F1CC01C403707FCFF7D17F98F7E
:1009D0001CC05C4041777D17F98F5CC0B7079F0052
:1009E0001CC44D261C4C93E707021CCCB7170140D2
:1009F00003A70740938607401377F7F023A0E7404B
:100A000003A707401367070823A0E74089479CCA4C
:100A1000B7F7FF1F03C5477D9307F00F6304F50089
:100A20007D898D26B72702409843C176FD16719BBC
:100A300098C398431367170098C3B7170240D84369
:100A4000D8C3D843758FD8C3D843B7060001D8C3DD
:100A50009843558F98C3984393166700E3DD06FECD
:100A6000D843B7160240719BD8C3D84313672700F9
:100A7000D8C32147DC42B18BE39EE7FE6FF0EFE283
:100A8000EFF20FE2371702405C4337040020914633
:100A9000B18B130444016385D700A1466382D70458
:100AA000B7376E01938707601CC0B7160240DC425F
:100AB0000840918313F7F700B7070020938747009A
:100AC000BA978C23DC4293F5F50F93F70708335759
:100AD000B50081E7EFF08FDE2A8718C06FF0EFDCFA
:100AE0005C43B777DC02938707C07DBF01A0970105
:100AF0000020938121D5138101FC1305000A97F58D
:100B0000FF1F9385255017F6FF1F1306A64F63FAA4
:100B1000C5008322050023A0550011059105E3EAD5
:100B2000C5FE170500001305E57B97F5FF1F9385AC
:100B3000654D17F6FF1F1306E65063FAC5008322C2
:100B4000050023A0550011059105E3EAC5FE17F540
:100B5000FF1F1305254F938581856377B5002320FB
:100B600005001105E36DB5FEB722000093820288EF
:100B7000739002308D427390428097F2FFFF938210
:100B8000624893E2320073905230EFF05FE19702D7
:100B900000009382A2AB739012347300203094450E
:100BA00093F7060193F2F60081C7DC41B3E2F2004D
:100BB00083D3050093F7F30FA5C303230500611149
:100BC00022C226C081471304800293048004054793
:100BD0003316F70033F7C3006312E602939527003C
:100BE0003D473317B7001347F7FF33736700B395DB
:100BF000B20033E36500639D860050C98507214735
:100C0000E397E7FC1244232065008244210182809F
:100C1000E39696FE10C9DDB78280370301400327B3
:100C200043009317350063D00702B707C0FFF517DD
:100C3000F98F37070007D98FD9CD370700F07D1717
:100C4000798DC98F49A8635D0500B707E0FFED17EF
:100C5000F98F37070007D98FBDCD06050581D5B7B8
:100C6000B7073000931605013376F500C182631390
:100C7000F602370600F97D16B377C7000327430055
:100C8000798E2322C300A1C95581131745003395DE
:100C9000E60045BF9317B50063D4070293570501DB
:100CA00013F6F7008D47B397C70093C7F7FFF98F87
:100CB00037070007D98F85C1135755011207C1BFE8
:100CC000558112053395A6009347F5FFF98F370735
:100CD0000007D98FBDF5370701405CC38280B73765
:100CE000004088C38280B7370040C8C38280B737CE
:100CF000004088C78280AD67373700409387A7AA36
:100D00001CC38280B567373700409387C7CC1CC3AC
:100D1000371702405C53898BF5DF828023AAA184B8
:100D2000828083A64185854718216390F6021C3195
:100D3000639CD7023C219A0793E707F8B7E600E0E7
:100D400093F7F70FBA962380F640854693575700DE
:100D50003397E600544189CE938707048A07B7E6A4
:100D600000E0B69798C38280EDF33C219A07F9B76B
:100D700093870706B7E600E08A07B69798C30F1077
:100D800000008280371702401C430E0593F777F06E
:100D90005D8D08C38280EFF2AFB0371702405C432D
:100DA00091462A84B18B6385D700A1466380D7081A
:100DB000B7376E01938707601CC0B7160240DC424C
:100DC000918313F7F700B70700209387C702BA97FC
:100DD0008C23DC42184093F5F50F93F70708335541
:100DE000B70081E73A85EFF06FAD48C008C448C44A
:100DF000B7170240DC438D46AD83FD8B13D7370018
:100E00008A07F18BD98F13F6370113F7370063F494
:100E1000C600138747FFB707002093878701BA975B
:100E20008C23EFF0AFA908C86FF02FA85C43B77709
:100E3000DC02938707C049B799C5371702401C4F9A
:100E40005D8D08CF8280B7170240984F1345F5FF9C
:100E5000798D88CF8280EFF2AFA41629F577FD1740
:100E6000F58FF621DA252111D58F1EA95625FD779C
:100E70009387379FF58FD6212A842EC0D58F96254C
:100E8000D58FB625D58F5EA55E29C207C18393F79E
:100E9000F7CF5D8F5AA94800FD3DB74701409387C2
:100EA000078082456312F406C2475A24139517003F
:100EB0003E9542070E0541873E958C4163580704D5
:100EC0008605EFF0AF9F930540062AC0EFF00F9F15
:100ED000824793144500930540063E85EFF0CFA06E
:100EE0005E24C207C18763D507020E05930540063D
:100EF00013052503EFF08F9C1D89C98CC204C180A6
:100F000006A461016FF06F9AB24745B78A0555BFD5
:100F100012059305400613052503EFF02F9A3D892E
:100F2000E9BF91C55E250967D98F5EA582805A25E4
:100F3000F977FD17F98FD5BF13F7F50F854715839F
:100F4000B395B7006319F7009307C500984301CE26
:100F5000D98D8CC38280894693074501E318D7FE5B
:100F600093070501E5B793C5F5FFF98DDDB793F557
:100F7000F51F4EA182804A211375F51F82800A2138
:100F80006D8D3335A000828013F7F50F85461583EC
:100F9000B397B6006311D7025A25F98F1A2101457C
:100FA0004207418381CB0545A181B315B5006D8F03
:100FB0003335E000828089466314D7001A29F1BFD7
:100FC0005A29E1BFEFF2CF8D2A8411651301C1FDCB
:100FD0008545450502C002C2853537052080854517
:100FE000110525398D4785443EC62C00E14737154C
:100FF000014064843EC8653689477C842C00914753
:10100000371501403EC8613E22CA37440140B70748
:101010000C004C08130504803ECE02CC23100102C4
:101020001D3D054693055052130504803137930743
:1010300000127C800A8585473EC24481DD318545AA
:1010400013050480F93D130141026FF00F86EFF2A2
:101050002F857111AE840144635DC402B74701401E
:10106000138707803A859305000432C0093FB747CC
:10107000014013870780024675D5338784008305B6
:101080000700138507800504C205C181CD350246DE
:10109000E1B7328511016FF04F81411122C426C2A0
:1010A00006C61C21AA840144DC81830731000504A3
:1010B00091EFA9479305310005460145DC81413F89
:1010C0002285B24022449244410182800546930524
:1010D00031000145AD3FB38784009C23DC81F1B72B
:1010E0000000C1C081C1400101C3C003800241C2F0
:1010F00001C6C006800741C70005C1C581C44004C0
:1011000001CCC00C800D41CD000FC1CF81CE400E6F
:10111000000AC1CA81CB400B01C9C009800841C87F
:1011200001D8C018801941D9001BC1DB81DA401AEF
:10113000001EC1DE81DF401F01DDC01D801C41DCBF
:101140000014C1D481D5401501D7C017801641D6EF
:1011500001D2C012801341D30011C1D181D04010FF
:1011600001F0C030803141F10033C1F381F24032EF
:101170000036C1F681F7403701F5C035803441F4BF
:10118000003CC1FC81FD403D01FFC03F803E41FE6F
:1011900001FAC03A803B41FB0039C1F981F840387F
:1011A0000028C1E881E9402901EBC02B802A41EAEF
:1011B00001EEC02E802F41EF002DC1ED81EC402CBF
:1011C00001E4C024802541E50027C1E781E64026EF
:1011D0000022C1E281E3402301E1C021802041E0FF
:1011E00001A0C060806141A10063C1A381A24062EF
:1011F0000066C1A681A7406701A5C065806441A4BF
:10120000006CC1AC81AD406D01AFC06F806E41AE6E
:1012100001AAC06A806B41AB0069C1A981A840687E
:101220000078C1B881B9407901BBC07B807A41BAEE
:1012300001BEC07E807F41BF007DC1BD81BC407CBE
:1012400001B4C074807541B50077C1B781B64076EE
:101250000072C1B281B3407301B1C071807041B0FE
:101260000050C190819140510193C05380524192EE
:101270000196C056805741970055C19581944054BE
:10128000019CC05C805D419D005FC19F819E405E6E
:10129000005AC19A819B405B0199C059805841987E
:1012A0000188C04880494189004BC18B818A404AEE
:1012B000004EC18E818F404F018DC04D804C418CBE
:1012C0000044C184818540450187C04780464186EE
:1012D0000182C042804341830041C18181804040FE
:1012E000FFFF0000010203040506070801020304D2
:1012F00005060708006CDC020204060804080C104E
:1013000008101820102030402040608001020304A3
:10131000050607080102030405060708000000008F
:00000001FF
