:100000006F00F002000000000C0200000E02000071
:1000100000000000000000000000000000000000E0
:1000200000000000000000000000000000000000D0
:100030001E020000000000002C080000000000006C
:100040002C0800002C0800002C0800002C080000E0
:100050002C0800002C0800002C0800002C080000D0
:100060002C0800002C0800002C0800002C080000C0
:100070002C0800002C0800002C0800002C080000B0
:100080006E0600002C0800002C0800002C08000060
:100090002C0800002C0800002C08000000000000C4
:1000A000511126C022C206C4828282441244A24058
:1000B000310182802A86014593F6150091C232955E
:1000C00085810606F5F9828000000000634E050276
:1000D00063C305042E86AA857D5515C285466378BF
:1000E000B6006356C00006068606E36CB6FE014500
:1000F00063E4C500918D558D85820582F5FA828075
:100100008682C93F2E8582823305A04063D70500D1
:10011000B305B040C1B7B305B0408682653F330533
:10012000A0408282868263C70500634905005D376F
:100130002E858282B305B040E35B05FE3305A04007
:10014000513F3305B040828200003D432A876373EC
:10015000C3029377F700BDEFADE5937606FF3D8AC6
:10016000BA960CC34CC30CC74CC74107E36BD7FE10
:1001700011E28280B306C3408A0697020000969679
:100180006780A6002307B700A306B7002306B700C1
:10019000A305B7002305B700A304B7002304B700E5
:1001A000A303B7002303B700A302B7002302B700DD
:1001B000A301B7002301B700A300B7002300B700D5
:1001C000828093F5F50F93968500D58D9396050162
:1001D000D58D61B793962700970200009696868288
:1001E000E78086FA9680C1171D8F3E96E374C3F8A8
:1001F000A5B7A98D93F5F50F856793870700860549
:10020000BE95135785008A21398D828001A0B707DA
:10021000EFBE37E700E0938707083CC701A0B7F7B8
:1002200000E0D4430547639CE60023A2070003A730
:10023000818111C703A781817D1723ACE180730001
:100240002030EFF2FFE5511185451305000202C091
:1002500002C202C4EF00502E85477C803715014052
:10026000C1473EC48A858D47130505403EC2EF0055
:10027000D00131011DBDB7F700E0D8438566799BF9
:10028000D8C388CB23A407003D4798C3B7E700E055
:1002900023A0D7102386E7408280EFF27FE013018E
:1002A00041FD6146814548084D35854513054003AC
:1002B00002C402C602C802C002C2EF00F027854590
:1002C00013050020EF0050273165EF00901B371415
:1002D00001408947130504802C007C8402C8EF008C
:1002E000C07AC1472C00371501407C84EF00E079CB
:1002F0009307C0062C00130504407C84372401407A
:10030000EF00A07813050440D92BB7070E004C0866
:100310003ED01305044085472304F10202CA02CCF3
:1003200002CE02D2C5239307D0217C800A8585475F
:100330003EC223010100EF00900DB7050002130536
:100340000440EF0040730546930500481305044040
:10035000092D854513050440ED2B13050440292D77
:10036000930404402685312D75FD13050440372480
:100370000140212D130404402285292D75FD130110
:10038000C10225B393870182AA979823931625006B
:1003900013868182160536963A9593860184060562
:1003A00003230600369516212E9305073303D34009
:1003B0007D8B232066000EA198A38280EFF25FCE92
:1003C0002A8415657111130555552EC0EF00E07F85
:1003D0001375F40FEF00E07F82452E85EF00E07F7C
:1003E000EF003000EF00D0001101C1B1EFF25FCBA0
:1003F000130141FCF1260545EF001001938781812F
:1004000023A00700B707002003A507019305803E3E
:1004100013848181C13181457D15B13D1565130579
:1004200005B0EF00102C953D293DB7170140054759
:1004300023A8E74093058002A947371601400CC066
:1004400018407DFF0327C640FD1793F7F70F1347AA
:1004500017002326E640E5F79387C1819305803E88
:10046000154523800700993FB7070205938747305A
:100470003ECC93076010FC8685473EC29387C181BE
:100480003EC4B7170300938707D48144014402C0D8
:100490003EC6824732476362F71A85073EC08567CA
:1004A0009387873863EE8718050442044180B72795
:1004B00001401385074083A70740898B89CF452BCF
:1004C000AA8513F5F40F7D3D1385140099459939DC
:1004D0008547AA843EC2A24705479C23E31BF7FA3F
:1004E000A2471307900423800700B70700209387D3
:1004F00087039423E39FE6F8983393061004E31AE6
:10050000D7F8BC23E397E7F8B717014003A7C74024
:1005100041661347170023A6E7409386818218108F
:100520007D1688429305F0553ACA1581718D36C8FB
:100530005136C16725811386F7FFB377C50093D580
:100540008740BD899312050193F0F50F254393D29F
:10055000020193837003C24652476344B3009383FE
:1005600000039187BD8B2300770093F3F70F9385EA
:1005700073036344F300938503033D890CB393F243
:10058000F2009307750363645300930705033CA3CC
:100590000D07930721039106E395E7F87D57239014
:1005A000E19C01479387019C1410BA968C228A2300
:1005B0003AC8813142479387019C8AA30507C946FF
:1005C000E314D7FE9356C50013F7F60F254693079D
:1005D00077036364D600930707032309F102935757
:1005E0008540BD8B93F6F70F25461387760363444A
:1005F000F6001387060393574540BD8BA309E1021C
:1006000093F6F70F2546138776036344F6001387A6
:1006100006033D89230AE102A5461377F50F9307E8
:10062000770363E4A600930707030810A30AF10207
:10063000230B0102EF005018A9BD652302C085B548
:1006400092470144E38507E67C18A69783C5C7FD5A
:10065000B7270140138507409D460546A12EB727C1
:100660000140854513850740152E02C289B57111D9
:1006700022C0374401409305505213050480EF0017
:10068000900209CD13050480EF00D0001375F50F1B
:100690009307F0026318F500238A018002441101D8
:1006A000730020309307C0056316F5000547238EBD
:1006B000E180EDB7138741811C238946E3E0F6FE14
:1006C0001C2393F6F70F9387160093F7F70F1CA3DD
:1006D000B707002093878703B69788A3C1B7EFF2C7
:1006E0003F9C371402401C403707FFF8414593E711
:1006F00017001CC05C40F98F5CC01C403707F7FE38
:100700007D17F98F1CC01C403707FCFF7D17F98F40
:100710001CC05C4041777D17F98F5CC0B7079F0014
:100720001CC4B9231C4C93E707021CCCB71701402B
:1007300003A70740938607401377F7F023A0E7400D
:1007400003A707401367070823A0E74089479CCA0F
:10075000B7F7FF1F03C5477D9307F00F6304F5004C
:100760007D893923B72702409843C176FD16719BD6
:1007700098C398431367170098C3B7170240D8432C
:10078000D8C3D843758FD8C3D843B7060001D8C3A0
:100790009843558F98C3984393166700E3DD06FE90
:1007A000D843B7160240719BD8C3D84313672700BC
:1007B000D8C32147DC42B18BE39EE7FE6FF0FF8E8A
:1007C000EFF21F8E371702405C433704002091463A
:1007D000B18B130404016385D700A1466382D7045B
:1007E000B7376E01938707601CC0B7160240DC4222
:1007F0000840918313F7F700B7070020938707009D
:10080000BA978C23DC4293F5F50F93F7070833571B
:10081000B50081E7EFF01F8C2A8718C06FF0FF88C2
:100820005C43B777DC02938707C07DBF01A09701C7
:1008300000209381A100138181FC1305000A97F524
:10084000FF1F9385257C17F6FF1F1306A67B63FA0F
:10085000C5008322050023A0550011059105E3EA98
:10086000C5FE171500001305E59997F5FF1F938541
:10087000657917F6FF1F1306667C63FAC5008322AD
:10088000050023A0550011059105E3EAC5FE17F503
:10089000FF1F1305A57A9385819C6377B5002320FC
:1008A00005001105E36DB5FEB722000093820288B2
:1008B000739002308D427390428097F2FFFF9382D3
:1008C000627493E2320073905230EFF05FE197026E
:1008D00000009382E2B17390123473002030B72786
:1008E000014093870740631EF500EFF26FFB8545DB
:1008F000130500208D21814513050020A9296FF0E3
:10090000CFFA82805C413707F1FF1307F7EF7D8F45
:10091000DC419441A207D58FD98F5CC11C4537F7C4
:10092000F1FF1307D77FD4457D8F9C49D58F944520
:100930008606D58FD98F1CC55C55370710FF7D17EC
:100940007D8FDC29FD1793F7F70FD207D98F5CD580
:1009500082801C4589C593E717001CC58280F99BDE
:10096000EDBF5C4193F5F50F01C6DD8D4CC1828072
:1009700093C5F5FFFD8DDDBF1C4593E787001CC5C2
:10098000828008450D81058982801C4593E74700D8
:100990001CC5828008450981058982801C4591C556
:1009A00037075000D98F1CC582803707B0FF7D17ED
:1009B000F98FD5BFA54763F8B704138765FF931771
:1009C00017008322C500BA971D433313F300134366
:1009D000F3FF33735300B397F600B3E767005CC5CA
:1009E000994763E3C7047D16931726003E9658592E
:1009F000FD47B397C70093C7F7FFF98FB395C500BD
:100A0000DD8D4CD982809397150003230501AE97A5
:100A10001D473317F7001347F7FF33776700B39786
:100A2000F6005D8F18C96DBFB14763E2C702651656
:100A3000931726003E961859FD47B397C70093C7F2
:100A4000F7FFF98FB395C500DD8D0CD982804D1667
:100A50001317260054553A96FD47B397C70093C71E
:100A6000F7FFF58FB395C500DD8D4CD582806845C5
:100A70004205418182805C41370700FA7D17F98F7A
:100A80005CC15C41DD8D4CC18280944593F70601C9
:100A900093F2F60081C7DC41B3E2F20083D3050094
:100AA00093F7F30FA5C303230500611122C226C0EB
:100AB0008147130480029304800405473316F7002E
:100AC00033F7C3006312E602939527003D473317BF
:100AD000B7001347F7FF33736700B395B20033E3F2
:100AE0006500639D860050C985072147E397E7FCB1
:100AF000124423206500824421018280E39696FE01
:100B000010C9DDB7828037030140032743009317E4
:100B1000350063D00702B707C0FFF517F98F370715
:100B20000007D98FD9CD370700F07D17798DC98F90
:100B300049A8635D0500B707E0FFED17F98F370798
:100B40000007D98FBDCD06050581D5B7B7073000A1
:100B5000931605013376F500C1826313F60237065A
:100B600000F97D16B377C70003274300798E23224F
:100B7000C300A1C95581131745003395E60045BF51
:100B80009317B50063D407029357050113F6F700D6
:100B90008D47B397C70093C7F7FFF98F3707000753
:100BA000D98F85C1135755011207C1BF5581120551
:100BB0003395A6009347F5FFF98F37070007D98FC4
:100BC000BDF5370701405CC38280B737004088C35A
:100BD0008280B7370040C8C38280B737004088C7DB
:100BE0008280AD67373700409387A7AA1CC38280F5
:100BF000B567373700409387C7CC1CC3371702400F
:100C00005C53898BF5DF828023A2A19C828083A61E
:100C1000419C854718216390F6021C31639CD702E2
:100C20003C219A0793E707F8B7E600E093F7F70F40
:100C3000BA962380F6408546935757003397E600CF
:100C4000544189CE938707048A07B7E600E0B69738
:100C500098C38280EDF33C219A07F9B79387070682
:100C6000B7E600E08A07B69798C30F1000008280AD
:100C7000371702401C430E0593F777F05D8D08C3CC
:100C80008280B7160240DC4241771307F77FF98F65
:100C90005D8DC8C28280EFF2AFC0371702405C435F
:100CA00091462A84B18B6385D700A1466380D7081B
:100CB000B7376E01938707601CC0B7160240DC424D
:100CC000918313F7F700B707002093878702BA973D
:100CD0008C23DC42184093F5F50F93F70708335542
:100CE000B70081E73A85EFF0EFBE48C008C448C4BA
:100CF000B7170240DC438D46AD83FD8B13D7370019
:100D00008A07F18BD98F13F6370113F7370063F495
:100D1000C600138747FFB707002093874701BA979C
:100D20008C23EFF02FBB08C86FF02FB85C43B77768
:100D3000DC02938707C049B799C5371702401C4F9B
:100D40005D8D08CF8280B7170240984F1345F5FF9D
:100D5000798D88CF828099C5371702405C475D8DB9
:100D600048C78280B7170240D8471345F5FF798DF1
:100D7000C8C78280EFF2CFB21629F577FD17F58F3D
:100D8000F621DA252111D58F1EA95625FD779387E7
:100D9000379FF58FD6212A842EC0D58F9625D58FE3
:100DA000B625D58F5EA55E29C207C18393F7F7CF1D
:100DB0005D8F5AA94800C535B74701409387078022
:100DC00082456312F406C2475A24139517003E95D4
:100DD00042070E0541873E958C41635807048605FE
:100DE000EFF04FAF930540062AC0EFF0AFAE824759
:100DF00093144500930540063E85EFF06FB05E24E6
:100E0000C207C18763D507020E0593054006130587
:100E10002503EFF02FAC1D89C98CC204C18006A444
:100E200061016FF08FA8B24745B78A0555BF12051B
:100E30009305400613052503EFF0CFA93D89E9BFCF
:100E400091C55E250967D98F5EA582805A25F977FD
:100E5000FD17F98FD5BF13F7F50F85471583B395A8
:100E6000B7006319F7009307C500984301CED98DE9
:100E70008CC38280894693074501E318D7FE930708
:100E80000501E5B793C5F5FFF98DDDB793F5F51FBE
:100E90004EA182804A211375F51F82800A216D8D33
:100EA0003335A000828013F7F50F85461583B3977D
:100EB000B6006311D7025A25F98F1A21014542075E
:100EC000418381CB0545A181B315B5006D8F3335C5
:100ED000E000828089466314D7001A29F1BF5A299D
:100EE000E1BFEFF2EF9B2A8411651301C1FD854537
:100EF000450502C002C289353705208085451105A8
:100F000019318D4785443EC62C00E1473715014015
:100F100064843EC89D3E89477C842C0091473715E8
:100F200001403EC89D3622CA37440140B7070C0035
:100F30004C08130504803ECE02CC231001021D3D57
:100F4000054693055052130504803137930700126C
:100F50007C800A8585473EC2448155398545130505
:100F60000480F93D130141026FF02F94EFF24F938B
:100F70007111AE840144635DC402B7470140138719
:100F800007803A859305000432C0093FB747014006
:100F900013870780024675D53387840083050700D1
:100FA000138507800504C205C181CD350246E1B72E
:100FB000328511016FF06F8F411122C426C206C61F
:100FC0001C21AA840144DC8183073100050491EFD0
:100FD000A9479305310005460145DC81413F228543
:100FE000B24022449244410182800546930531007B
:100FF0000145AD3FB38784009C23DC81F1B700003D
:101000000000C1C081C1400101C3C003800241C2D0
:1010100001C6C006800741C70005C1C581C44004A0
:1010200001CCC00C800D41CD000FC1CF81CE400E50
:10103000000AC1CA81CB400B01C9C009800841C860
:1010400001D8C018801941D9001BC1DB81DA401AD0
:10105000001EC1DE81DF401F01DDC01D801C41DCA0
:101060000014C1D481D5401501D7C017801641D6D0
:1010700001D2C012801341D30011C1D181D04010E0
:1010800001F0C030803141F10033C1F381F24032D0
:101090000036C1F681F7403701F5C035803441F4A0
:1010A000003CC1FC81FD403D01FFC03F803E41FE50
:1010B00001FAC03A803B41FB0039C1F981F8403860
:1010C0000028C1E881E9402901EBC02B802A41EAD0
:1010D00001EEC02E802F41EF002DC1ED81EC402CA0
:1010E00001E4C024802541E50027C1E781E64026D0
:1010F0000022C1E281E3402301E1C021802041E0E0
:1011000001A0C060806141A10063C1A381A24062CF
:101110000066C1A681A7406701A5C065806441A49F
:10112000006CC1AC81AD406D01AFC06F806E41AE4F
:1011300001AAC06A806B41AB0069C1A981A840685F
:101140000078C1B881B9407901BBC07B807A41BACF
:1011500001BEC07E807F41BF007DC1BD81BC407C9F
:1011600001B4C074807541B50077C1B781B64076CF
:101170000072C1B281B3407301B1C071807041B0DF
:101180000050C190819140510193C05380524192CF
:101190000196C056805741970055C195819440549F
:1011A000019CC05C805D419D005FC19F819E405E4F
:1011B000005AC19A819B405B0199C059805841985F
:1011C0000188C04880494189004BC18B818A404ACF
:1011D000004EC18E818F404F018DC04D804C418C9F
:1011E0000044C184818540450187C04780464186CF
:1011F0000182C042804341830041C18181804040DF
:101200000102030405060708010203040506070896
:10121000006CDC020204060804080C1008101820F8
:1012200010203040204060800102030405060708BA
:08123000010203040506070892
:00000001FF
